:100000000C942E010C945F010C945F010C945F0121
:100010000C945F010C945F010C945F010C945F01E0
:100020000C945F010C945F010C945F010C945F01D0
:100030000C945F010C945F010C945F010C945F01C0
:100040000C945F010C945F010C945F010C945F01B0
:100050000C945F010C945F010C945F010C942D06CD
:100060000C945F010C94F7050C94CD050C945F0182
:100070000C945F010C945F010C945F010C945F0180
:100080000C945F010C945F010C945F010C945F0170
:100090000C945F010C945F010C945F010C945F0160
:1000A0000C945F010C945F010C9477060C945F0133
:1000B0000C945F010C945F010C945F010C945F0140
:1000C0000C945F010C945F010C945F010C945F0130
:1000D0000C945F010C945F010C945F010C945F0120
:1000E0000C945F010C94E9020C941B050C9407031B
:1000F0000C9416020C94FF020C9497030C94E402E7
:100100000C9414030C9480010C943A030C942C036B
:100110000C94AC060C94BC010C9428030C94AD0117
:100120000C94DE010C9463020C9403030C940A03F8
:100130000C9436030C9410030C9422030C9430039B
:100140000C94FB020C941E030C9498030C941A0359
:100150000C94D00100000A0B02090C0D0E080703D5
:10016000040100000000000000000000000000008A
:10017000000000000000000000000000000000007F
:10018000121110000000000000000000000000003C
:100190000000000000000000000000002200250018
:1001A00028002B002E003100340002010000050160
:1001B00008010B0100002100240027002A002D0067
:1001C0003000330001010000040107010A010505A8
:1001D0000505070508080808020202020A0A0808BD
:1001E00004040404010101010101010103030303EB
:1001F00003030303040707070C0C0C0C0C0C0C0C7A
:100200000202020206060606060606060B0B0B0B8A
:100210000B0B0B0B010210202008081020401020AF
:1002200040800201020108040201010204081020BA
:1002300040808040201008040201800402018040B8
:100240002010080402010804020101020408102021
:1002500040800102040810204080AC0611241FBE1B
:10026000CFEFD1E2DEBFCDBF00E00CBF23E0A8E5B9
:10027000B2E001C01D92A03DB207E1F712E0A0E09C
:10028000B2E0E0E9F2E100E00BBF02C007900D929E
:10029000A835B107D9F711E0CEE2D1E000E006C001
:1002A00021970109802FFE010E943E09CD32D1071E
:1002B00080E00807A9F70E94FB060C9446090C94FD
:1002C000000090E0FC01EC5EFD4F249182539E4FB4
:1002D000FC018491882399F090E0880F991FFC011C
:1002E000EC54FE4FA591B491FC01E656FE4F85916A
:1002F00094918FB7F894EC91E22BEC938FBF089513
:10030000AF92BF92CF92DF92EF92FF920F931F9323
:10031000CF93DF936C017B018B01040F151FEB0161
:100320005E01AE18BF08C017D10759F06991D60118
:10033000ED91FC910190F081E02DC6011995892B7A
:1003400079F7C501DF91CF911F910F91FF90EF9049
:10035000DF90CF90BF90AF900895FC01538D448DF6
:10036000252F30E0842F90E0821B930B541710F060
:10037000CF96089501970895FC01918D828D98176D
:1003800061F0A28DAE0FBF2FB11D5D968C91928D45
:100390009F5F9F73928F90E008958FEF9FEF089576
:1003A000FC01918D828D981731F0828DE80FF11D3F
:1003B000858D90E008958FEF9FEF0895FC01918D5A
:1003C000228D892F90E0805C9F4F821B91098F7353
:1003D000992708958BE193E00E94DE0121E0892BAB
:1003E00009F420E0822F0895FC01A48DA80FB92FF5
:1003F000B11DA35ABF4F2C91848D90E001968F734D
:100400009927848FA689B7892C93A089B1898C916B
:10041000837080648C93938D848D981306C00288BA
:10042000F389E02D80818F7D80830895EF92FF9284
:100430000F931F93CF93DF93EC0181E0888F9B8D07
:100440008C8D98131AC0E889F989808185FF15C0C1
:100450009FB7F894EE89FF896083E889F9898081E4
:100460008370806480839FBF81E090E0DF91CF91B3
:100470001F910F91FF90EF900895F62E0B8D10E0D5
:100480000F5F1F4F0F731127E02E8C8D8E110CC044
:100490000FB607FCFACFE889F989808185FFF5CF8F
:1004A000CE010E94F401F1CFEB8DEC0FFD2FF11D79
:1004B000E35AFF4FF0829FB7F8940B8FEA89FB89CC
:1004C00080818062CFCFCF93DF93EC01888D88232A
:1004D000B9F0AA89BB89E889F9898C9185FD03C0A7
:1004E000808186FD0DC00FB607FCF7CF8C9185FF8C
:1004F000F2CF808185FFEDCFCE010E94F401E9CFDC
:10050000DF91CF91089580E090E0892B29F00E943F
:10051000EA0181110E94000080E090E0892B49F0FF
:1005200080E090E0892B29F00E94000081110E9458
:10053000000080E090E0892B49F080E090E0892B7A
:1005400029F00E94000081110E94000080E090E0EC
:10055000892B49F080E090E0892B29F00E9400006F
:1005600081110C9400000895282F30E0F901EC5A15
:10057000FE4F9491F901EC5EFD4F449122533E4FA2
:10058000F9012491222309F435C0992311F19150E6
:100590009231F8F4E92FF0E08827EE52FD4F8F4FAB
:1005A0000C943E0903030703E402FB02FF02E90285
:1005B0000A03100314031A031E03220328032C0347
:1005C000E902300336033A03809180008F778093ED
:1005D0008000E22FF0E0EE0FFF1FE656FE4FA591E0
:1005E000B4918FB7F894EC91611148C040954E23B7
:1005F0004C938FBF0895809180008F7DE8CF8091CC
:100600008000877FE4CF84B58F7784BDE2CF84B547
:100610008F7DFBCF8091B0008F778093B000D9CFD2
:100620008091B0008F7DF9CF809190008F7780937B
:100630009000CFCF809190008F7DF9CF8091900076
:10064000877FF5CF8091A0008F778093A000C1CFE6
:100650008091A0008F7DF9CF8091A000877FF5CF9A
:10066000809120018F7780932001B3CF809120016A
:100670008F7DF9CF80912001877FF5CF4E2BB8CFAA
:100680003FB7F89480915D0290915E02A0915F0265
:10069000B091600226B5A89B05C02F3F19F00196C6
:1006A000A11DB11D3FBFBA2FA92F982F8827BC01CC
:1006B000CD01620F711D811D911D42E0660F771FF4
:1006C000881F991F4A95D1F708958F929F92AF92F4
:1006D000BF92CF92DF92EF92FF924B015C010E949A
:1006E00040036B017C010E9440036C197D098E0957
:1006F0009F09683E734081059105A8F321E0821AA5
:100700009108A108B10888EEC80E83E0D81EE11C4C
:10071000F11C81149104A104B10429F7FF90EF901A
:10072000DF90CF90BF90AF909F908F9008950895E5
:1007300090E080E0089561E08BE00E94B40264EFF5
:1007400071E080E090E00E94650360E08BE00C9433
:10075000B40261E08BE00E94B40262E370E080E0EA
:1007600090E00E94650360E08BE00E94B40269E1C2
:1007700070E080E090E00E94650361E08BE00E9401
:10078000B40262E370E080E090E00E94650360E004
:100790008BE00C94B402CF93DF93EC0160E08E8188
:1007A0000E94B40261E08E810E94B40260E08E81FA
:1007B0000E94B4028BE891E00197F1F7DF91CF91AD
:1007C0000895CF92DF92EF92FF920F931F93CF93F2
:1007D000DF936C017C0187E0E80EF11CD0E0C0E003
:1007E000062F10E0B8010C2E02C0759567950A948B
:1007F000E2F76170F70181917F010E94B4022196B6
:10080000C430D10579F7C601DF91CF911F910F91C7
:10081000FF90EF90DF90CF900C94CB03CF92DF92BC
:10082000EF92FF920F931F93CF93DF93EC01F62E7D
:10083000642F8C810E94B4028D818F3F19F060E09B
:100840000E94B4020F2D10E08F8584FF25C06E0139
:1008500087E0C80ED11CF12CE12CB8010E2C02C08F
:10086000759567950A94E2F76170F60181916F01C1
:100870000E94B402FFEFEF1AFF0A88E0E816F104C5
:1008800061F7CE01DF91CF911F910F91FF90EF9013
:10089000DF90CF900C94CB03B80184E075956795F9
:1008A0008A95E1F7CE010E94E1036F2DCE01DF9121
:1008B000CF911F910F91FF90EF90DF90CF900C940C
:1008C000E10340E0682F88EB93E00C940E0481E094
:1008D0000E9461048BE39FE10197F1F70895CF93A4
:1008E000DF93823029F49091C70398609093C703F7
:1008F0008093CB031092CC0380E48093CD0380E1FE
:100900008093CE0380E58093CF038091BC030E9447
:1009100061018091BD038F3F11F00E9461018091C0
:10092000BE030E946101C8EBD3E09E01285B334007
:100930008091C70384FD0AC084E090E021962817C7
:1009400039073CF48E810E946101EFCF88E090E08E
:10095000F5CF8BE39DE00197F1F760E08091BC0358
:100960000E94B40260E08091BE030E94B4028091B4
:10097000BD038F3F19F060E00E94B4028091C7036D
:1009800084FD34C063E088EB93E00E94E103CBE494
:10099000D6E4CE010197F1F763E088EB93E00E9483
:1009A000E1032197F1F763E088EB93E00E94E10314
:1009B00083E592E00197F1F762E088EB93E00E9413
:1009C000E1038091C70380620E94610484E0809308
:1009D000C8038CE00E9461040E94670482E0809357
:1009E000C90386E0DF91CF910C94610480620E947C
:1009F00061048BE496E40197F1F78091C70380626C
:100A00000E94610483E592E00197F1F78091C703AA
:100A100080620E946104D5CF9091CB03691710F0DA
:100A20006FEF690FE62FF0E0E854FC4F9489890FCF
:100A300080680C94610441E00E940E0481E090E023
:100A40000895FB0101900020E9F73197AF01461BA3
:100A5000570BDC01ED91FC910280F381E02D19949C
:100A60008F929F92AF92BF92EF92FF920F931F933C
:100A7000CF93DF93CDB7DEB7A1970FB6F894DEBF63
:100A80000FBECDBF7C01FA01CB0119A2223008F4C0
:100A90002AE08E010F5D1F4F822E912CB12CA12CCC
:100AA000BF01A50194010E941C09F901CA016A3025
:100AB0000CF5605DD8016E938D01232B242B252B23
:100AC00079F790E080E0109721F0BD01C7010E9406
:100AD0002105A1960FB6F894DEBF0FBECDBFDF9102
:100AE000CF911F910F91FF90EF90BF90AF909F908B
:100AF0008F900895695CDECF462F50E070E060E093
:100B00002AE00C943005AC01990F660B770B2AE0B4
:100B100088EB93E00C9430050C942105CF93DF9380
:100B2000EC0160E083E00E940C0588818A3030F49B
:100B30006EE172E088EB93E00E948C05688188EB9F
:100B400093E00E947C0560E272E088EB93E00E94F3
:100B50008C0589818A3030F46EE172E088EB93E095
:100B60000E948C05698188EB93E00E947C0560E21D
:100B700072E088EB93E00E948C058A818A3030F421
:100B80006EE172E088EB93E00E948C056A8188EB4D
:100B900093E0DF91CF910C947C051F920F920FB6DA
:100BA0000F9211240BB60F922F933F934F935F93A5
:100BB0006F937F938F939F93AF93BF93EF93FF9325
:100BC0008BE193E00E94F401FF91EF91BF91AF910F
:100BD0009F918F917F916F915F914F913F912F9155
:100BE0000F900BBE0F900FBE0F901F9018951F9285
:100BF0000F920FB60F9211240BB60F922F938F9373
:100C00009F93EF93FF93E0912B03F0912C0380814E
:100C1000E0913103F091320382FD1DC090818091FB
:100C200034038F5F8F7320913503821741F0E09179
:100C30003403F0E0E55EFC4F958F80933403FF9121
:100C4000EF919F918F912F910F900BBE0F900FBE40
:100C50000F901F9018958081F2CF1F920F920FB6C0
:100C60000F9211242F933F938F939F93AF93BF9332
:100C70008091590290915A02A0915B02B0915C025E
:100C80003091580223E0230F2D3758F50196A11D0E
:100C9000B11D209358028093590290935A02A09359
:100CA0005B02B0935C0280915D0290915E02A09124
:100CB0005F02B09160020196A11DB11D80935D029B
:100CC00090935E02A0935F02B0936002BF91AF91D8
:100CD0009F918F913F912F910F900FBE0F901F907A
:100CE000189526E8230F0296A11DB11DD2CF1F92A1
:100CF0000F920FB60F9211248F9380916102811190
:100D00000BC080911A038F5F8C3361F080931A03BC
:100D100080911A03882379F08F910F900FBE0F9066
:100D20001F90189510921A03809119038F5F8C33CE
:100D300031F08093190381E080931703EDCF109277
:100D40001903809118038F5F883119F0809318037D
:100D5000F2CF10921803DCCFEBE1F3E013821282A2
:100D600088EE93E0A0E0B0E084839583A683B78308
:100D700084E092E09183808385EC90E0958784877E
:100D800084EC90E09787868780EC90E0918B808B55
:100D900081EC90E0938B828B82EC90E0958B848B3E
:100DA00086EC90E0978B868B118E128E138E148EAC
:100DB000E8EBF3E01382128286E192E09183808374
:100DC00085E0848386E0858387E0868385E2878368
:100DD00084E2808783E2818782E2828781E283875F
:100DE00080E284878FE185878EE1868780E187872F
:100DF00081E00C946F04CF93DF931F921F92CDB7C5
:100E0000DEB7789484B5826084BD84B5816084BD8A
:100E100085B5826085BD85B5816085BD80916E0098
:100E2000816080936E0010928100809181008260C9
:100E30008093810080918100816080938100809106
:100E400080008160809380008091B10084608093F5
:100E5000B1008091B00081608093B00080919100DA
:100E600082608093910080919100816080939100D5
:100E7000809190008160809390008091A1008260B9
:100E80008093A1008091A10081608093A100809156
:100E9000A00081608093A0008091210182608093F6
:100EA00021018091210181608093210180912001A5
:100EB00081608093200180917A00846080937A0021
:100EC00080917A00826080937A0080917A008160BC
:100ED00080937A0080917A00806880937A001092E3
:100EE000C100E0912B03F0912C0312E01083E091FC
:100EF0002703F09128031082E0912903F0912A033F
:100F00008FEC808310923303E0912F03F091300334
:100F100086E08083E0912D03F0912E038081806133
:100F20008083E0912D03F0912E038081886080837F
:100F3000E0912D03F0912E03808180688083E09101
:100F40002D03F0912E0380818F7D8083F8948BE0B8
:100F50000E94610182E00E946F041092A0008DE067
:100F60008093A1001093720088E09DE39093A90004
:100F70008093A80078944AE0F42E8BE193E00E94DD
:100F8000BC01182F813409F4F5C088E193E00E9478
:100F90008E05133409F0D9C010921803109219036A
:100FA00010921A0381E08093610248C060E080E003
:100FB0000E940C056EE172E088EB93E00E948C05C4
:100FC00081E090E00E94830560E083E00E940C05D0
:100FD00082E692E00E948E0560E08DE00E940C05A2
:100FE00062E272E088EB93E00E948C058091160328
:100FF0008A3030F46EE172E088EB93E00E948C0559
:101000006091160388EB93E00E947C0561E085E027
:101010000E940C0564E272E088EB93E00E948C056C
:1010200061E080E00E940C0510E08BE193E00E94FB
:10103000BC01082F813469F40E9467048091170372
:10104000882321F00E949B03109217030E948302C1
:1010500094CF833209F05FC0111117C061E080E0C6
:101060000E940C0560E372E088EB93E00E948C051F
:101070000E949B0361E080E00E940C056AE372E03D
:1010800088EB93E00E948C05CFCF8981123009F064
:101090003FC01A8111508F9D100D112480911603AD
:1010A0001817E0F660E080E00E940C051A3030F47A
:1010B0006EE172E088EB93E00E948C05812F90E056
:1010C00001960E94830560E083E00E940C0523E006
:1010D000129FC00111248E599D4F0E948E0561E020
:1010E00080E00E940C0564E372E088EB93E00E94CC
:1010F0008C050E94A90368EC70E080E090E00E94FB
:10110000650361E080E00E940C0569E372E0B8CFFE
:101110001FEF180FC3CF30EDE32EE80E89E08E15D8
:1011200008F483CF123008F099CF61E0812F0E943C
:101130000C0541E0602F88EB93E00E940E041F5FD6
:10114000FE01E10FF11DE08270CF143481F566E5F8
:1011500072E08BE193E00E948C058091610291E046
:10116000892721CF109216030E94A90367CF0E94FE
:101170009B033DC00E94670480911603811116CF26
:101180006EE372E088EB93E00E948C0561E08AE0F8
:101190000E940C056FE472E088EB93E00E948C05DE
:1011A0008BE193E00E94BC018A32D1F745CF1A321D
:1011B000C9F2133209F042CF809116038C33B8F68E
:1011C0008F5F809316038150990BFC01EE0FFF1F78
:1011D000E80FF91FEE59FD4F809118039091190304
:1011E000A0911A0380839183A2830E94A90368ECD3
:1011F00070E080E090E00E946503609118038BE14D
:1012000093E00E947C0560E272E08BE193E00E9433
:101210008C05609119038BE193E00E947C0560E2EC
:1012200072E08BE193E00E948C0560911A038BE1E0
:1012300093E00E947C0502CFA1E21A2EAA1BBB1BE1
:10124000FD010DC0AA1FBB1FEE1FFF1FA217B30792
:10125000E407F50720F0A21BB30BE40BF50B661FA8
:10126000771F881F991F1A9469F76095709580956C
:1012700090959B01AC01BD01CF010895EE0FFF1FBA
:10128000881F8BBF0790F691E02D1994F894FFCF3B
:101290000000000016028001AD016302DE01BC0106
:1012A000D001000000001B05800198039703300067
:1012B0003A004D003C2D4120592D2320422D3E0067
:1012C00042414E00444F4E450020202020005265F0
:1012D000676973746572277320656D707479004255
:0812E00061636B2D2A0061001F
:00000001FF
